{
  "_format": "hh-sol-artifact-1",
  "contractName": "LngbPreSaleContract",
  "sourceName": "contracts/LnbgPreSaleContract.sol",
  "abi": [
    {
      "inputs": [
        {
          "internalType": "address",
          "name": "_usdt",
          "type": "address"
        },
        {
          "internalType": "address",
          "name": "_usdc",
          "type": "address"
        },
        {
          "internalType": "address",
          "name": "_saleToken",
          "type": "address"
        }
      ],
      "stateMutability": "nonpayable",
      "type": "constructor"
    },
    {
      "inputs": [],
      "name": "minimumAndMaximumLimit",
      "type": "error"
    },
    {
      "inputs": [],
      "name": "pleaseSendTokenPrice",
      "type": "error"
    },
    {
      "inputs": [],
      "name": "roundSupplyLimitExceed",
      "type": "error"
    },
    {
      "inputs": [],
      "name": "waitForSale",
      "type": "error"
    },
    {
      "anonymous": false,
      "inputs": [
        {
          "indexed": true,
          "internalType": "address",
          "name": "previousOwner",
          "type": "address"
        },
        {
          "indexed": true,
          "internalType": "address",
          "name": "newOwner",
          "type": "address"
        }
      ],
      "name": "OwnershipTransferred",
      "type": "event"
    },
    {
      "anonymous": false,
      "inputs": [
        {
          "indexed": false,
          "internalType": "address",
          "name": "_addr",
          "type": "address"
        },
        {
          "indexed": false,
          "internalType": "uint256",
          "name": "_amount",
          "type": "uint256"
        },
        {
          "indexed": false,
          "internalType": "string",
          "name": "_paymentType",
          "type": "string"
        }
      ],
      "name": "buyHistory",
      "type": "event"
    },
    {
      "inputs": [
        {
          "internalType": "uint256",
          "name": "_amount",
          "type": "uint256"
        }
      ],
      "name": "buyWithBNB",
      "outputs": [
        {
          "internalType": "bool",
          "name": "",
          "type": "bool"
        }
      ],
      "stateMutability": "payable",
      "type": "function"
    },
    {
      "inputs": [
        {
          "internalType": "uint256",
          "name": "_buyToken",
          "type": "uint256"
        },
        {
          "internalType": "bool",
          "name": "isUsdt",
          "type": "bool"
        }
      ],
      "name": "buyWithUSDT",
      "outputs": [
        {
          "internalType": "bool",
          "name": "",
          "type": "bool"
        }
      ],
      "stateMutability": "nonpayable",
      "type": "function"
    },
    {
      "inputs": [
        {
          "internalType": "uint256",
          "name": "_priceInUSDT",
          "type": "uint256"
        }
      ],
      "name": "changeSalePrice",
      "outputs": [],
      "stateMutability": "nonpayable",
      "type": "function"
    },
    {
      "inputs": [],
      "name": "getLatestUSDTPrice",
      "outputs": [
        {
          "internalType": "uint256",
          "name": "",
          "type": "uint256"
        }
      ],
      "stateMutability": "view",
      "type": "function"
    },
    {
      "inputs": [],
      "name": "isSale",
      "outputs": [
        {
          "internalType": "bool",
          "name": "",
          "type": "bool"
        }
      ],
      "stateMutability": "view",
      "type": "function"
    },
    {
      "inputs": [],
      "name": "owner",
      "outputs": [
        {
          "internalType": "address",
          "name": "",
          "type": "address"
        }
      ],
      "stateMutability": "view",
      "type": "function"
    },
    {
      "inputs": [],
      "name": "raisedAmount",
      "outputs": [
        {
          "internalType": "uint256",
          "name": "",
          "type": "uint256"
        }
      ],
      "stateMutability": "view",
      "type": "function"
    },
    {
      "inputs": [],
      "name": "renounceOwnership",
      "outputs": [],
      "stateMutability": "nonpayable",
      "type": "function"
    },
    {
      "inputs": [],
      "name": "salePrice",
      "outputs": [
        {
          "internalType": "uint256",
          "name": "",
          "type": "uint256"
        }
      ],
      "stateMutability": "view",
      "type": "function"
    },
    {
      "inputs": [
        {
          "internalType": "uint256",
          "name": "_amount",
          "type": "uint256"
        }
      ],
      "name": "sellTokenInETHPrice",
      "outputs": [
        {
          "internalType": "uint256",
          "name": "",
          "type": "uint256"
        }
      ],
      "stateMutability": "view",
      "type": "function"
    },
    {
      "inputs": [
        {
          "internalType": "uint256",
          "name": "_amount",
          "type": "uint256"
        }
      ],
      "name": "sellTokenInUDSTPrice",
      "outputs": [
        {
          "internalType": "uint256",
          "name": "",
          "type": "uint256"
        }
      ],
      "stateMutability": "view",
      "type": "function"
    },
    {
      "inputs": [],
      "name": "startTheSale",
      "outputs": [],
      "stateMutability": "nonpayable",
      "type": "function"
    },
    {
      "inputs": [
        {
          "internalType": "address",
          "name": "newOwner",
          "type": "address"
        }
      ],
      "name": "transferOwnership",
      "outputs": [],
      "stateMutability": "nonpayable",
      "type": "function"
    },
    {
      "inputs": [
        {
          "internalType": "uint256",
          "name": "_amount",
          "type": "uint256"
        }
      ],
      "name": "withdrawTokens",
      "outputs": [
        {
          "internalType": "bool",
          "name": "",
          "type": "bool"
        }
      ],
      "stateMutability": "nonpayable",
      "type": "function"
    }
  ],
  "bytecode": "0x60806040523480156200001157600080fd5b5060405162001ca038038062001ca0833981810160405281019062000037919062000268565b620000576200004b6200013260201b60201c565b6200013a60201b60201c565b82600360006101000a81548173ffffffffffffffffffffffffffffffffffffffff021916908373ffffffffffffffffffffffffffffffffffffffff16021790555081600460006101000a81548173ffffffffffffffffffffffffffffffffffffffff021916908373ffffffffffffffffffffffffffffffffffffffff16021790555080600560006101000a81548173ffffffffffffffffffffffffffffffffffffffff021916908373ffffffffffffffffffffffffffffffffffffffff16021790555067016345785d8a0000600181905550505050620002c4565b600033905090565b60008060009054906101000a900473ffffffffffffffffffffffffffffffffffffffff169050816000806101000a81548173ffffffffffffffffffffffffffffffffffffffff021916908373ffffffffffffffffffffffffffffffffffffffff1602179055508173ffffffffffffffffffffffffffffffffffffffff168173ffffffffffffffffffffffffffffffffffffffff167f8be0079c531659141344cd1fd0a4f28419497f9722a3daafe3b4186f6b6457e060405160405180910390a35050565b600080fd5b600073ffffffffffffffffffffffffffffffffffffffff82169050919050565b6000620002308262000203565b9050919050565b620002428162000223565b81146200024e57600080fd5b50565b600081519050620002628162000237565b92915050565b600080600060608486031215620002845762000283620001fe565b5b6000620002948682870162000251565b9350506020620002a78682870162000251565b9250506040620002ba8682870162000251565b9150509250925092565b6119cc80620002d46000396000f3fe6080604052600436106100dd5760003560e01c8063b56208961161007f578063cf28a78411610059578063cf28a784146102a1578063f2fde38b146102de578063f51f96dd14610307578063f8c1c18614610332576100dd565b8063b56208961461021d578063c3333dfb14610246578063c59ee1dc14610276576100dd565b8063715018a6116100bb578063715018a6146101995780638da5cb5b146101b05780638de2637b146101db57806398dd36bf146101f2576100dd565b8063136021d9146100e2578063315a095d1461011f578063582788181461015c575b600080fd5b3480156100ee57600080fd5b506101096004803603810190610104919061128f565b61035d565b60405161011691906112de565b60405180910390f35b34801561012b57600080fd5b50610146600480360381019061014191906112f9565b610ac0565b60405161015391906112de565b60405180910390f35b34801561016857600080fd5b50610183600480360381019061017e91906112f9565b610b7b565b6040516101909190611335565b60405180910390f35b3480156101a557600080fd5b506101ae610baa565b005b3480156101bc57600080fd5b506101c5610bbe565b6040516101d29190611391565b60405180910390f35b3480156101e757600080fd5b506101f0610be7565b005b3480156101fe57600080fd5b50610207610c5c565b6040516102149190611335565b60405180910390f35b34801561022957600080fd5b50610244600480360381019061023f91906112f9565b610c6b565b005b610260600480360381019061025b91906112f9565b610cc0565b60405161026d91906112de565b60405180910390f35b34801561028257600080fd5b5061028b610fd1565b6040516102989190611335565b60405180910390f35b3480156102ad57600080fd5b506102c860048036038101906102c391906112f9565b610fd7565b6040516102d59190611335565b60405180910390f35b3480156102ea57600080fd5b50610305600480360381019061030091906113d8565b610ffc565b005b34801561031357600080fd5b5061031c61107f565b6040516103299190611335565b60405180910390f35b34801561033e57600080fd5b50610347611085565b60405161035491906112de565b60405180910390f35b60008060149054906101000a900460ff166103a4576040517f2d919c4a00000000000000000000000000000000000000000000000000000000815260040160405180910390fd5b60006103af84610b7b565b9050670de0b6b3a76400008110806103cf5750683635c9adc5dea0000081115b15610406576040517f35debf6d00000000000000000000000000000000000000000000000000000000815260040160405180910390fd5b82156107655783600560009054906101000a900473ffffffffffffffffffffffffffffffffffffffff1673ffffffffffffffffffffffffffffffffffffffff166370a08231306040518263ffffffff1660e01b81526004016104689190611391565b602060405180830381865afa158015610485573d6000803e3d6000fd5b505050506040513d601f19601f820116820180604052508101906104a9919061141a565b10156104e1576040517f9210988b00000000000000000000000000000000000000000000000000000000815260040160405180910390fd5b6000600360009054906101000a900473ffffffffffffffffffffffffffffffffffffffff1673ffffffffffffffffffffffffffffffffffffffff1663dd62ed3e33306040518363ffffffff1660e01b8152600401610540929190611447565b602060405180830381865afa15801561055d573d6000803e3d6000fd5b505050506040513d601f19601f82011682018060405250810190610581919061141a565b9050808210156105bd576040517f8bbdc31c00000000000000000000000000000000000000000000000000000000815260040160405180910390fd5b600360009054906101000a900473ffffffffffffffffffffffffffffffffffffffff1673ffffffffffffffffffffffffffffffffffffffff166323b872dd33610604610bbe565b856040518463ffffffff1660e01b815260040161062393929190611470565b6020604051808303816000875af1158015610642573d6000803e3d6000fd5b505050506040513d601f19601f8201168201806040525081019061066691906114bc565b50600560009054906101000a900473ffffffffffffffffffffffffffffffffffffffff1673ffffffffffffffffffffffffffffffffffffffff1663a9059cbb33876040518363ffffffff1660e01b81526004016106c49291906114e9565b6020604051808303816000875af11580156106e3573d6000803e3d6000fd5b505050506040513d601f19601f8201168201806040525081019061070791906114bc565b50816002600082825461071a9190611541565b925050819055507f0371644b355388a624a6177b002ed35bc804509fdde155c58472d42bd1ce3d0833866040516107529291906115d2565b60405180910390a1600192505050610aba565b83600560009054906101000a900473ffffffffffffffffffffffffffffffffffffffff1673ffffffffffffffffffffffffffffffffffffffff166370a08231306040518263ffffffff1660e01b81526004016107c19190611391565b602060405180830381865afa1580156107de573d6000803e3d6000fd5b505050506040513d601f19601f82011682018060405250810190610802919061141a565b101561083a576040517f9210988b00000000000000000000000000000000000000000000000000000000815260040160405180910390fd5b6000600460009054906101000a900473ffffffffffffffffffffffffffffffffffffffff1673ffffffffffffffffffffffffffffffffffffffff1663dd62ed3e33306040518363ffffffff1660e01b8152600401610899929190611447565b602060405180830381865afa1580156108b6573d6000803e3d6000fd5b505050506040513d601f19601f820116820180604052508101906108da919061141a565b905080821015610916576040517f8bbdc31c00000000000000000000000000000000000000000000000000000000815260040160405180910390fd5b600460009054906101000a900473ffffffffffffffffffffffffffffffffffffffff1673ffffffffffffffffffffffffffffffffffffffff166323b872dd3361095d610bbe565b856040518463ffffffff1660e01b815260040161097c93929190611470565b6020604051808303816000875af115801561099b573d6000803e3d6000fd5b505050506040513d601f19601f820116820180604052508101906109bf91906114bc565b50600560009054906101000a900473ffffffffffffffffffffffffffffffffffffffff1673ffffffffffffffffffffffffffffffffffffffff1663a9059cbb33876040518363ffffffff1660e01b8152600401610a1d9291906114e9565b6020604051808303816000875af1158015610a3c573d6000803e3d6000fd5b505050506040513d601f19601f82011682018060405250810190610a6091906114bc565b508160026000828254610a739190611541565b925050819055507f0371644b355388a624a6177b002ed35bc804509fdde155c58472d42bd1ce3d083386604051610aab92919061165a565b60405180910390a16001925050505b92915050565b6000610aca611098565b600560009054906101000a900473ffffffffffffffffffffffffffffffffffffffff1673ffffffffffffffffffffffffffffffffffffffff1663a9059cbb610b10610bbe565b846040518363ffffffff1660e01b8152600401610b2e9291906114e9565b6020604051808303816000875af1158015610b4d573d6000803e3d6000fd5b505050506040513d601f19601f82011682018060405250810190610b7191906114bc565b5060019050919050565b600080670de0b6b3a764000083600154610b959190611696565b610b9f9190611707565b905080915050919050565b610bb2611098565b610bbc6000611116565b565b60008060009054906101000a900473ffffffffffffffffffffffffffffffffffffffff16905090565b610bef611098565b600060149054906101000a900460ff1615610c3f576040517f08c379a0000000000000000000000000000000000000000000000000000000008152600401610c3690611784565b60405180910390fd5b6001600060146101000a81548160ff021916908315150217905550565b60006606cde542c07202905090565b610c73611098565b60008111610cb6576040517f08c379a0000000000000000000000000000000000000000000000000000000008152600401610cad906117f0565b60405180910390fd5b8060018190555050565b60008060149054906101000a900460ff16610d07576040517f2d919c4a00000000000000000000000000000000000000000000000000000000815260040160405180910390fd5b81600560009054906101000a900473ffffffffffffffffffffffffffffffffffffffff1673ffffffffffffffffffffffffffffffffffffffff166370a08231306040518263ffffffff1660e01b8152600401610d639190611391565b602060405180830381865afa158015610d80573d6000803e3d6000fd5b505050506040513d601f19601f82011682018060405250810190610da4919061141a565b1015610ddc576040517f9210988b00000000000000000000000000000000000000000000000000000000815260040160405180910390fd5b6000610de783610b7b565b9050670de0b6b3a7640000811080610e075750683635c9adc5dea0000081115b15610e3e576040517f35debf6d00000000000000000000000000000000000000000000000000000000815260040160405180910390fd5b6000610e4984610fd7565b905080341015610e85576040517f8bbdc31c00000000000000000000000000000000000000000000000000000000815260040160405180910390fd5b610e8d610bbe565b73ffffffffffffffffffffffffffffffffffffffff166108fc349081150290604051600060405180830381858888f19350505050158015610ed2573d6000803e3d6000fd5b50600560009054906101000a900473ffffffffffffffffffffffffffffffffffffffff1673ffffffffffffffffffffffffffffffffffffffff1663a9059cbb33866040518363ffffffff1660e01b8152600401610f309291906114e9565b6020604051808303816000875af1158015610f4f573d6000803e3d6000fd5b505050506040513d601f19601f82011682018060405250810190610f7391906114bc565b508160026000828254610f869190611541565b925050819055507f0371644b355388a624a6177b002ed35bc804509fdde155c58472d42bd1ce3d083385604051610fbe92919061185c565b60405180910390a1600192505050919050565b60025481565b600080610fe383610b7b565b90506000610ff0826111da565b90508092505050919050565b611004611098565b600073ffffffffffffffffffffffffffffffffffffffff168173ffffffffffffffffffffffffffffffffffffffff1603611073576040517f08c379a000000000000000000000000000000000000000000000000000000000815260040161106a9061190a565b60405180910390fd5b61107c81611116565b50565b60015481565b600060149054906101000a900460ff1681565b6110a0611214565b73ffffffffffffffffffffffffffffffffffffffff166110be610bbe565b73ffffffffffffffffffffffffffffffffffffffff1614611114576040517f08c379a000000000000000000000000000000000000000000000000000000000815260040161110b90611976565b60405180910390fd5b565b60008060009054906101000a900473ffffffffffffffffffffffffffffffffffffffff169050816000806101000a81548173ffffffffffffffffffffffffffffffffffffffff021916908373ffffffffffffffffffffffffffffffffffffffff1602179055508173ffffffffffffffffffffffffffffffffffffffff168173ffffffffffffffffffffffffffffffffffffffff167f8be0079c531659141344cd1fd0a4f28419497f9722a3daafe3b4186f6b6457e060405160405180910390a35050565b600080670de0b6b3a7640000836111f19190611707565b90506000816111fe610c5c565b6112089190611696565b90508092505050919050565b600033905090565b600080fd5b6000819050919050565b61123481611221565b811461123f57600080fd5b50565b6000813590506112518161122b565b92915050565b60008115159050919050565b61126c81611257565b811461127757600080fd5b50565b60008135905061128981611263565b92915050565b600080604083850312156112a6576112a561121c565b5b60006112b485828601611242565b92505060206112c58582860161127a565b9150509250929050565b6112d881611257565b82525050565b60006020820190506112f360008301846112cf565b92915050565b60006020828403121561130f5761130e61121c565b5b600061131d84828501611242565b91505092915050565b61132f81611221565b82525050565b600060208201905061134a6000830184611326565b92915050565b600073ffffffffffffffffffffffffffffffffffffffff82169050919050565b600061137b82611350565b9050919050565b61138b81611370565b82525050565b60006020820190506113a66000830184611382565b92915050565b6113b581611370565b81146113c057600080fd5b50565b6000813590506113d2816113ac565b92915050565b6000602082840312156113ee576113ed61121c565b5b60006113fc848285016113c3565b91505092915050565b6000815190506114148161122b565b92915050565b6000602082840312156114305761142f61121c565b5b600061143e84828501611405565b91505092915050565b600060408201905061145c6000830185611382565b6114696020830184611382565b9392505050565b60006060820190506114856000830186611382565b6114926020830185611382565b61149f6040830184611326565b949350505050565b6000815190506114b681611263565b92915050565b6000602082840312156114d2576114d161121c565b5b60006114e0848285016114a7565b91505092915050565b60006040820190506114fe6000830185611382565b61150b6020830184611326565b9392505050565b7f4e487b7100000000000000000000000000000000000000000000000000000000600052601160045260246000fd5b600061154c82611221565b915061155783611221565b925082820190508082111561156f5761156e611512565b5b92915050565b600082825260208201905092915050565b7f5553445400000000000000000000000000000000000000000000000000000000600082015250565b60006115bc600483611575565b91506115c782611586565b602082019050919050565b60006060820190506115e76000830185611382565b6115f46020830184611326565b8181036040830152611605816115af565b90509392505050565b7f5553444300000000000000000000000000000000000000000000000000000000600082015250565b6000611644600483611575565b915061164f8261160e565b602082019050919050565b600060608201905061166f6000830185611382565b61167c6020830184611326565b818103604083015261168d81611637565b90509392505050565b60006116a182611221565b91506116ac83611221565b92508282026116ba81611221565b915082820484148315176116d1576116d0611512565b5b5092915050565b7f4e487b7100000000000000000000000000000000000000000000000000000000600052601260045260246000fd5b600061171282611221565b915061171d83611221565b92508261172d5761172c6116d8565b5b828204905092915050565b7f616c726561647920537461727465640000000000000000000000000000000000600082015250565b600061176e600f83611575565b915061177982611738565b602082019050919050565b6000602082019050818103600083015261179d81611761565b9050919050565b7f5072696365206d7573742062652067726561746572207468616e205a65726f00600082015250565b60006117da601f83611575565b91506117e5826117a4565b602082019050919050565b60006020820190508181036000830152611809816117cd565b9050919050565b7f424e420000000000000000000000000000000000000000000000000000000000600082015250565b6000611846600383611575565b915061185182611810565b602082019050919050565b60006060820190506118716000830185611382565b61187e6020830184611326565b818103604083015261188f81611839565b90509392505050565b7f4f776e61626c653a206e6577206f776e657220697320746865207a65726f206160008201527f6464726573730000000000000000000000000000000000000000000000000000602082015250565b60006118f4602683611575565b91506118ff82611898565b604082019050919050565b60006020820190508181036000830152611923816118e7565b9050919050565b7f4f776e61626c653a2063616c6c6572206973206e6f7420746865206f776e6572600082015250565b6000611960602083611575565b915061196b8261192a565b602082019050919050565b6000602082019050818103600083015261198f81611953565b905091905056fea26469706673582212208fbd9b09f3d74f3e03b52e1c5c8a1938a837e873358abfce04c8a70126cfb84f64736f6c63430008130033",
  "linkReferences": {},
  "deployedLinkReferences": {}
}