{
  "_format": "hh-sol-artifact-1",
  "contractName": "WrappedBridgeLnbg",
  "sourceName": "contracts/WrapedBridgeBase.sol",
  "abi": [
    {
      "inputs": [
        {
          "internalType": "address",
          "name": "_usdt",
          "type": "address"
        },
        {
          "internalType": "address",
          "name": "_usdc",
          "type": "address"
        },
        {
          "internalType": "address",
          "name": "_token",
          "type": "address"
        }
      ],
      "stateMutability": "nonpayable",
      "type": "constructor"
    },
    {
      "inputs": [],
      "name": "invalidUSDTPrice",
      "type": "error"
    },
    {
      "inputs": [],
      "name": "minimumAndMaximumLimit",
      "type": "error"
    },
    {
      "inputs": [],
      "name": "pleaseSendTokenPrice",
      "type": "error"
    },
    {
      "anonymous": false,
      "inputs": [
        {
          "indexed": true,
          "internalType": "address",
          "name": "previousOwner",
          "type": "address"
        },
        {
          "indexed": true,
          "internalType": "address",
          "name": "newOwner",
          "type": "address"
        }
      ],
      "name": "OwnershipTransferred",
      "type": "event"
    },
    {
      "anonymous": false,
      "inputs": [
        {
          "indexed": false,
          "internalType": "address",
          "name": "from",
          "type": "address"
        },
        {
          "indexed": false,
          "internalType": "address",
          "name": "to",
          "type": "address"
        },
        {
          "indexed": false,
          "internalType": "uint256",
          "name": "amount",
          "type": "uint256"
        },
        {
          "indexed": false,
          "internalType": "uint256",
          "name": "date",
          "type": "uint256"
        },
        {
          "indexed": false,
          "internalType": "uint256",
          "name": "nonce",
          "type": "uint256"
        },
        {
          "indexed": false,
          "internalType": "uint256",
          "name": "chainId",
          "type": "uint256"
        }
      ],
      "name": "WrappedBurn",
      "type": "event"
    },
    {
      "anonymous": false,
      "inputs": [
        {
          "indexed": false,
          "internalType": "address",
          "name": "from",
          "type": "address"
        },
        {
          "indexed": false,
          "internalType": "address",
          "name": "to",
          "type": "address"
        },
        {
          "indexed": false,
          "internalType": "uint256",
          "name": "amount",
          "type": "uint256"
        },
        {
          "indexed": false,
          "internalType": "uint256",
          "name": "date",
          "type": "uint256"
        },
        {
          "indexed": false,
          "internalType": "uint256",
          "name": "nonce",
          "type": "uint256"
        },
        {
          "indexed": false,
          "internalType": "uint256",
          "name": "chainId",
          "type": "uint256"
        }
      ],
      "name": "WrappedMint",
      "type": "event"
    },
    {
      "anonymous": false,
      "inputs": [
        {
          "indexed": false,
          "internalType": "address",
          "name": "_addr",
          "type": "address"
        },
        {
          "indexed": false,
          "internalType": "uint256",
          "name": "_amount",
          "type": "uint256"
        },
        {
          "indexed": false,
          "internalType": "string",
          "name": "_paymentType",
          "type": "string"
        }
      ],
      "name": "buyHistory",
      "type": "event"
    },
    {
      "inputs": [],
      "name": "admin",
      "outputs": [
        {
          "internalType": "address",
          "name": "",
          "type": "address"
        }
      ],
      "stateMutability": "view",
      "type": "function"
    },
    {
      "inputs": [
        {
          "internalType": "address",
          "name": "_from",
          "type": "address"
        },
        {
          "internalType": "address",
          "name": "_to",
          "type": "address"
        },
        {
          "internalType": "uint256",
          "name": "_amount",
          "type": "uint256"
        },
        {
          "internalType": "uint256",
          "name": "_chainId",
          "type": "uint256"
        }
      ],
      "name": "burn",
      "outputs": [],
      "stateMutability": "nonpayable",
      "type": "function"
    },
    {
      "inputs": [
        {
          "internalType": "address",
          "name": "_to",
          "type": "address"
        },
        {
          "internalType": "uint256",
          "name": "_amount",
          "type": "uint256"
        }
      ],
      "name": "buyWithETH",
      "outputs": [
        {
          "internalType": "bool",
          "name": "",
          "type": "bool"
        }
      ],
      "stateMutability": "payable",
      "type": "function"
    },
    {
      "inputs": [
        {
          "internalType": "address",
          "name": "_to",
          "type": "address"
        },
        {
          "internalType": "uint256",
          "name": "_buyToken",
          "type": "uint256"
        },
        {
          "internalType": "bool",
          "name": "isUsdt",
          "type": "bool"
        }
      ],
      "name": "buyWithUSDT",
      "outputs": [
        {
          "internalType": "bool",
          "name": "",
          "type": "bool"
        }
      ],
      "stateMutability": "nonpayable",
      "type": "function"
    },
    {
      "inputs": [
        {
          "internalType": "uint256",
          "name": "_priceInUSDT",
          "type": "uint256"
        }
      ],
      "name": "changeSalePrice",
      "outputs": [],
      "stateMutability": "nonpayable",
      "type": "function"
    },
    {
      "inputs": [],
      "name": "getLatestUSDTPrice",
      "outputs": [
        {
          "internalType": "uint256",
          "name": "",
          "type": "uint256"
        }
      ],
      "stateMutability": "view",
      "type": "function"
    },
    {
      "inputs": [
        {
          "internalType": "address",
          "name": "_to",
          "type": "address"
        },
        {
          "internalType": "uint256",
          "name": "_amount",
          "type": "uint256"
        },
        {
          "internalType": "uint256",
          "name": "_nonce",
          "type": "uint256"
        },
        {
          "internalType": "uint256",
          "name": "_chainId",
          "type": "uint256"
        }
      ],
      "name": "mint",
      "outputs": [],
      "stateMutability": "nonpayable",
      "type": "function"
    },
    {
      "inputs": [],
      "name": "nonce",
      "outputs": [
        {
          "internalType": "uint256",
          "name": "",
          "type": "uint256"
        }
      ],
      "stateMutability": "view",
      "type": "function"
    },
    {
      "inputs": [],
      "name": "owner",
      "outputs": [
        {
          "internalType": "address",
          "name": "",
          "type": "address"
        }
      ],
      "stateMutability": "view",
      "type": "function"
    },
    {
      "inputs": [
        {
          "internalType": "uint256",
          "name": "",
          "type": "uint256"
        },
        {
          "internalType": "uint256",
          "name": "",
          "type": "uint256"
        }
      ],
      "name": "processedNonces",
      "outputs": [
        {
          "internalType": "bool",
          "name": "",
          "type": "bool"
        }
      ],
      "stateMutability": "view",
      "type": "function"
    },
    {
      "inputs": [],
      "name": "raisedAmount",
      "outputs": [
        {
          "internalType": "uint256",
          "name": "",
          "type": "uint256"
        }
      ],
      "stateMutability": "view",
      "type": "function"
    },
    {
      "inputs": [],
      "name": "renounceOwnership",
      "outputs": [],
      "stateMutability": "nonpayable",
      "type": "function"
    },
    {
      "inputs": [],
      "name": "salePrice",
      "outputs": [
        {
          "internalType": "uint256",
          "name": "",
          "type": "uint256"
        }
      ],
      "stateMutability": "view",
      "type": "function"
    },
    {
      "inputs": [
        {
          "internalType": "uint256",
          "name": "_amount",
          "type": "uint256"
        },
        {
          "internalType": "uint256",
          "name": "_roundPrice",
          "type": "uint256"
        }
      ],
      "name": "sellTokenInETHPrice",
      "outputs": [
        {
          "internalType": "uint256",
          "name": "",
          "type": "uint256"
        }
      ],
      "stateMutability": "view",
      "type": "function"
    },
    {
      "inputs": [
        {
          "internalType": "uint256",
          "name": "_amount",
          "type": "uint256"
        },
        {
          "internalType": "uint256",
          "name": "_roundPrice",
          "type": "uint256"
        }
      ],
      "name": "sellTokenInUDSTPrice",
      "outputs": [
        {
          "internalType": "uint256",
          "name": "",
          "type": "uint256"
        }
      ],
      "stateMutability": "view",
      "type": "function"
    },
    {
      "inputs": [],
      "name": "token",
      "outputs": [
        {
          "internalType": "contract IToken",
          "name": "",
          "type": "address"
        }
      ],
      "stateMutability": "view",
      "type": "function"
    },
    {
      "inputs": [
        {
          "internalType": "address",
          "name": "newOwner",
          "type": "address"
        }
      ],
      "name": "transferOwnership",
      "outputs": [],
      "stateMutability": "nonpayable",
      "type": "function"
    },
    {
      "inputs": [
        {
          "internalType": "address",
          "name": "_newToken",
          "type": "address"
        }
      ],
      "name": "updateToken",
      "outputs": [],
      "stateMutability": "nonpayable",
      "type": "function"
    }
  ],
  "bytecode": "0x608060405264e8d4a510006008553480156200001a57600080fd5b506040516200220e3803806200220e8339818101604052810190620000409190620002ac565b62000060620000546200017660201b60201c565b6200017e60201b60201c565b33600160006101000a81548173ffffffffffffffffffffffffffffffffffffffff021916908373ffffffffffffffffffffffffffffffffffffffff16021790555080600260006101000a81548173ffffffffffffffffffffffffffffffffffffffff021916908373ffffffffffffffffffffffffffffffffffffffff16021790555082600660006101000a81548173ffffffffffffffffffffffffffffffffffffffff021916908373ffffffffffffffffffffffffffffffffffffffff16021790555081600760006101000a81548173ffffffffffffffffffffffffffffffffffffffff021916908373ffffffffffffffffffffffffffffffffffffffff16021790555061753060048190555050505062000308565b600033905090565b60008060009054906101000a900473ffffffffffffffffffffffffffffffffffffffff169050816000806101000a81548173ffffffffffffffffffffffffffffffffffffffff021916908373ffffffffffffffffffffffffffffffffffffffff1602179055508173ffffffffffffffffffffffffffffffffffffffff168173ffffffffffffffffffffffffffffffffffffffff167f8be0079c531659141344cd1fd0a4f28419497f9722a3daafe3b4186f6b6457e060405160405180910390a35050565b600080fd5b600073ffffffffffffffffffffffffffffffffffffffff82169050919050565b6000620002748262000247565b9050919050565b620002868162000267565b81146200029257600080fd5b50565b600081519050620002a6816200027b565b92915050565b600080600060608486031215620002c857620002c762000242565b5b6000620002d88682870162000295565b9350506020620002eb8682870162000295565b9250506040620002fe8682870162000295565b9150509250925092565b611ef680620003186000396000f3fe6080604052600436106101095760003560e01c8063b562089611610095578063d7020d0a11610064578063d7020d0a14610370578063f2fde38b14610399578063f51f96dd146103c2578063f851a440146103ed578063fc0c546a1461041857610109565b8063b5620896146102a2578063ba0dc0cd146102cb578063c59ee1dc14610308578063d3838ba01461033357610109565b806395a51669116100dc57806395a51669146101b657806398dd36bf146101e65780639d6e1cca14610211578063a647e8ec1461024e578063affed0e01461027757610109565b80634184bcce1461010e578063715018a61461014b5780637ad3def2146101625780638da5cb5b1461018b575b600080fd5b34801561011a57600080fd5b506101356004803603810190610130919061139e565b610443565b60405161014291906113ed565b60405180910390f35b34801561015757600080fd5b50610160610494565b005b34801561016e57600080fd5b5061018960048036038101906101849190611466565b6104a8565b005b34801561019757600080fd5b506101a06104f4565b6040516101ad91906114a2565b60405180910390f35b6101d060048036038101906101cb91906114bd565b61051d565b6040516101dd9190611518565b60405180910390f35b3480156101f257600080fd5b506101fb6106fe565b60405161020891906113ed565b60405180910390f35b34801561021d57600080fd5b506102386004803603810190610233919061155f565b6107d1565b6040516102459190611518565b60405180910390f35b34801561025a57600080fd5b50610275600480360381019061027091906115b2565b610d1a565b005b34801561028357600080fd5b5061028c610f35565b60405161029991906113ed565b60405180910390f35b3480156102ae57600080fd5b506102c960048036038101906102c49190611619565b610f3b565b005b3480156102d757600080fd5b506102f260048036038101906102ed919061139e565b610f90565b6040516102ff91906113ed565b60405180910390f35b34801561031457600080fd5b5061031d61101f565b60405161032a91906113ed565b60405180910390f35b34801561033f57600080fd5b5061035a6004803603810190610355919061139e565b611025565b6040516103679190611518565b60405180910390f35b34801561037c57600080fd5b5061039760048036038101906103929190611646565b611054565b005b3480156103a557600080fd5b506103c060048036038101906103bb9190611466565b611144565b005b3480156103ce57600080fd5b506103d76111c7565b6040516103e491906113ed565b60405180910390f35b3480156103f957600080fd5b506104026111cd565b60405161040f91906114a2565b60405180910390f35b34801561042457600080fd5b5061042d6111f3565b60405161043a919061170c565b60405180910390f35b600080600854836104549190611756565b9050600064e8d4a51000670de0b6b3a764000086846104739190611756565b61047d91906117c7565b61048791906117c7565b9050809250505092915050565b61049c611219565b6104a66000611297565b565b6104b0611219565b80600260006101000a81548173ffffffffffffffffffffffffffffffffffffffff021916908373ffffffffffffffffffffffffffffffffffffffff16021790555050565b60008060009054906101000a900473ffffffffffffffffffffffffffffffffffffffff16905090565b60008061052c83600454610443565b9050620f4240811080610542575063b2d05e0081115b15610579576040517f35debf6d00000000000000000000000000000000000000000000000000000000815260040160405180910390fd5b600061058784600454610f90565b9050803410156105c3576040517f8bbdc31c00000000000000000000000000000000000000000000000000000000815260040160405180910390fd5b6105cb6104f4565b73ffffffffffffffffffffffffffffffffffffffff166108fc349081150290604051600060405180830381858888f19350505050158015610610573d6000803e3d6000fd5b50600260009054906101000a900473ffffffffffffffffffffffffffffffffffffffff1673ffffffffffffffffffffffffffffffffffffffff166340c10f1986866040518363ffffffff1660e01b815260040161066e9291906117f8565b600060405180830381600087803b15801561068857600080fd5b505af115801561069c573d6000803e3d6000fd5b5050505081600560008282546106b29190611821565b925050819055507f0371644b355388a624a6177b002ed35bc804509fdde155c58472d42bd1ce3d0833856040516106ea9291906118b2565b60405180910390a160019250505092915050565b60008073ee9f2375b4bdf6387aa8265dd4fb8f16512a1d46905060008173ffffffffffffffffffffffffffffffffffffffff1663feaf968c6040518163ffffffff1660e01b815260040160a060405180830381865afa158015610765573d6000803e3d6000fd5b505050506040513d601f19601f82011682018060405250810190610789919061197b565b505050915050600081136107c9576040517f6ef30c4500000000000000000000000000000000000000000000000000000000815260040160405180910390fd5b809250505090565b6000806107e084600454610443565b9050620f42408110806107f6575063b2d05e0081115b1561082d576040517f35debf6d00000000000000000000000000000000000000000000000000000000815260040160405180910390fd5b8215610aa5576000600660009054906101000a900473ffffffffffffffffffffffffffffffffffffffff1673ffffffffffffffffffffffffffffffffffffffff1663dd62ed3e33306040518363ffffffff1660e01b81526004016108929291906119f6565b602060405180830381865afa1580156108af573d6000803e3d6000fd5b505050506040513d601f19601f820116820180604052508101906108d39190611a1f565b90508082101561090f576040517f8bbdc31c00000000000000000000000000000000000000000000000000000000815260040160405180910390fd5b600660009054906101000a900473ffffffffffffffffffffffffffffffffffffffff1673ffffffffffffffffffffffffffffffffffffffff166323b872dd336109566104f4565b856040518463ffffffff1660e01b815260040161097593929190611a4c565b6020604051808303816000875af1158015610994573d6000803e3d6000fd5b505050506040513d601f19601f820116820180604052508101906109b89190611a98565b50600260009054906101000a900473ffffffffffffffffffffffffffffffffffffffff1673ffffffffffffffffffffffffffffffffffffffff166340c10f1987876040518363ffffffff1660e01b8152600401610a169291906117f8565b600060405180830381600087803b158015610a3057600080fd5b505af1158015610a44573d6000803e3d6000fd5b505050508160056000828254610a5a9190611821565b925050819055507f0371644b355388a624a6177b002ed35bc804509fdde155c58472d42bd1ce3d083386604051610a92929190611b11565b60405180910390a1600192505050610d13565b6000600760009054906101000a900473ffffffffffffffffffffffffffffffffffffffff1673ffffffffffffffffffffffffffffffffffffffff1663dd62ed3e33306040518363ffffffff1660e01b8152600401610b049291906119f6565b602060405180830381865afa158015610b21573d6000803e3d6000fd5b505050506040513d601f19601f82011682018060405250810190610b459190611a1f565b905080821015610b81576040517f8bbdc31c00000000000000000000000000000000000000000000000000000000815260040160405180910390fd5b600760009054906101000a900473ffffffffffffffffffffffffffffffffffffffff1673ffffffffffffffffffffffffffffffffffffffff166323b872dd33610bc86104f4565b856040518463ffffffff1660e01b8152600401610be793929190611a4c565b6020604051808303816000875af1158015610c06573d6000803e3d6000fd5b505050506040513d601f19601f82011682018060405250810190610c2a9190611a98565b50600260009054906101000a900473ffffffffffffffffffffffffffffffffffffffff1673ffffffffffffffffffffffffffffffffffffffff166340c10f1987876040518363ffffffff1660e01b8152600401610c889291906117f8565b600060405180830381600087803b158015610ca257600080fd5b505af1158015610cb6573d6000803e3d6000fd5b505050508160056000828254610ccc9190611821565b925050819055507f0371644b355388a624a6177b002ed35bc804509fdde155c58472d42bd1ce3d083386604051610d04929190611b99565b60405180910390a16001925050505b9392505050565b600160009054906101000a900473ffffffffffffffffffffffffffffffffffffffff1673ffffffffffffffffffffffffffffffffffffffff163373ffffffffffffffffffffffffffffffffffffffff1614610daa576040517f08c379a0000000000000000000000000000000000000000000000000000000008152600401610da190611c21565b60405180910390fd5b6000151560096000838152602001908152602001600020600084815260200190815260200160002060009054906101000a900460ff16151514610e22576040517f08c379a0000000000000000000000000000000000000000000000000000000008152600401610e1990611c8d565b60405180910390fd5b600160096000838152602001908152602001600020600084815260200190815260200160002060006101000a81548160ff021916908315150217905550600260009054906101000a900473ffffffffffffffffffffffffffffffffffffffff1673ffffffffffffffffffffffffffffffffffffffff166340c10f1985856040518363ffffffff1660e01b8152600401610ebc9291906117f8565b600060405180830381600087803b158015610ed657600080fd5b505af1158015610eea573d6000803e3d6000fd5b505050507f21983e74886774514c2f52363af856c8f21656819f27c8d5fc28dfcc47c4ceb9338585428686604051610f2796959493929190611cad565b60405180910390a150505050565b60035481565b610f43611219565b60008111610f86576040517f08c379a0000000000000000000000000000000000000000000000000000000008152600401610f7d90611d5a565b60405180910390fd5b8060048190555050565b60008060085483610fa19190611756565b9050600064e8d4a51000670de0b6b3a76400008684610fc09190611756565b610fca91906117c7565b610fd491906117c7565b9050600060085482610fe69190611756565b90506000670de0b6b3a764000082610ffc6106fe565b6110069190611756565b61101091906117c7565b90508094505050505092915050565b60055481565b60096020528160005260406000206020528060005260406000206000915091509054906101000a900460ff1681565b600260009054906101000a900473ffffffffffffffffffffffffffffffffffffffff1673ffffffffffffffffffffffffffffffffffffffff16639dc29fac85846040518363ffffffff1660e01b81526004016110b19291906117f8565b600060405180830381600087803b1580156110cb57600080fd5b505af11580156110df573d6000803e3d6000fd5b505050507fc56ba3c1c5b3710c52c20106d58f70110a7e83dc4e51178987eb8919adc384df848484426003548660405161111e96959493929190611cad565b60405180910390a16003600081548092919061113990611d7a565b919050555050505050565b61114c611219565b600073ffffffffffffffffffffffffffffffffffffffff168173ffffffffffffffffffffffffffffffffffffffff16036111bb576040517f08c379a00000000000000000000000000000000000000000000000000000000081526004016111b290611e34565b60405180910390fd5b6111c481611297565b50565b60045481565b600160009054906101000a900473ffffffffffffffffffffffffffffffffffffffff1681565b600260009054906101000a900473ffffffffffffffffffffffffffffffffffffffff1681565b61122161135b565b73ffffffffffffffffffffffffffffffffffffffff1661123f6104f4565b73ffffffffffffffffffffffffffffffffffffffff1614611295576040517f08c379a000000000000000000000000000000000000000000000000000000000815260040161128c90611ea0565b60405180910390fd5b565b60008060009054906101000a900473ffffffffffffffffffffffffffffffffffffffff169050816000806101000a81548173ffffffffffffffffffffffffffffffffffffffff021916908373ffffffffffffffffffffffffffffffffffffffff1602179055508173ffffffffffffffffffffffffffffffffffffffff168173ffffffffffffffffffffffffffffffffffffffff167f8be0079c531659141344cd1fd0a4f28419497f9722a3daafe3b4186f6b6457e060405160405180910390a35050565b600033905090565b600080fd5b6000819050919050565b61137b81611368565b811461138657600080fd5b50565b60008135905061139881611372565b92915050565b600080604083850312156113b5576113b4611363565b5b60006113c385828601611389565b92505060206113d485828601611389565b9150509250929050565b6113e781611368565b82525050565b600060208201905061140260008301846113de565b92915050565b600073ffffffffffffffffffffffffffffffffffffffff82169050919050565b600061143382611408565b9050919050565b61144381611428565b811461144e57600080fd5b50565b6000813590506114608161143a565b92915050565b60006020828403121561147c5761147b611363565b5b600061148a84828501611451565b91505092915050565b61149c81611428565b82525050565b60006020820190506114b76000830184611493565b92915050565b600080604083850312156114d4576114d3611363565b5b60006114e285828601611451565b92505060206114f385828601611389565b9150509250929050565b60008115159050919050565b611512816114fd565b82525050565b600060208201905061152d6000830184611509565b92915050565b61153c816114fd565b811461154757600080fd5b50565b60008135905061155981611533565b92915050565b60008060006060848603121561157857611577611363565b5b600061158686828701611451565b935050602061159786828701611389565b92505060406115a88682870161154a565b9150509250925092565b600080600080608085870312156115cc576115cb611363565b5b60006115da87828801611451565b94505060206115eb87828801611389565b93505060406115fc87828801611389565b925050606061160d87828801611389565b91505092959194509250565b60006020828403121561162f5761162e611363565b5b600061163d84828501611389565b91505092915050565b600080600080608085870312156116605761165f611363565b5b600061166e87828801611451565b945050602061167f87828801611451565b935050604061169087828801611389565b92505060606116a187828801611389565b91505092959194509250565b6000819050919050565b60006116d26116cd6116c884611408565b6116ad565b611408565b9050919050565b60006116e4826116b7565b9050919050565b60006116f6826116d9565b9050919050565b611706816116eb565b82525050565b600060208201905061172160008301846116fd565b92915050565b7f4e487b7100000000000000000000000000000000000000000000000000000000600052601160045260246000fd5b600061176182611368565b915061176c83611368565b925082820261177a81611368565b9150828204841483151761179157611790611727565b5b5092915050565b7f4e487b7100000000000000000000000000000000000000000000000000000000600052601260045260246000fd5b60006117d282611368565b91506117dd83611368565b9250826117ed576117ec611798565b5b828204905092915050565b600060408201905061180d6000830185611493565b61181a60208301846113de565b9392505050565b600061182c82611368565b915061183783611368565b925082820190508082111561184f5761184e611727565b5b92915050565b600082825260208201905092915050565b7f4554480000000000000000000000000000000000000000000000000000000000600082015250565b600061189c600383611855565b91506118a782611866565b602082019050919050565b60006060820190506118c76000830185611493565b6118d460208301846113de565b81810360408301526118e58161188f565b90509392505050565b600069ffffffffffffffffffff82169050919050565b61190d816118ee565b811461191857600080fd5b50565b60008151905061192a81611904565b92915050565b6000819050919050565b61194381611930565b811461194e57600080fd5b50565b6000815190506119608161193a565b92915050565b60008151905061197581611372565b92915050565b600080600080600060a0868803121561199757611996611363565b5b60006119a58882890161191b565b95505060206119b688828901611951565b94505060406119c788828901611966565b93505060606119d888828901611966565b92505060806119e98882890161191b565b9150509295509295909350565b6000604082019050611a0b6000830185611493565b611a186020830184611493565b9392505050565b600060208284031215611a3557611a34611363565b5b6000611a4384828501611966565b91505092915050565b6000606082019050611a616000830186611493565b611a6e6020830185611493565b611a7b60408301846113de565b949350505050565b600081519050611a9281611533565b92915050565b600060208284031215611aae57611aad611363565b5b6000611abc84828501611a83565b91505092915050565b7f5553445400000000000000000000000000000000000000000000000000000000600082015250565b6000611afb600483611855565b9150611b0682611ac5565b602082019050919050565b6000606082019050611b266000830185611493565b611b3360208301846113de565b8181036040830152611b4481611aee565b90509392505050565b7f5553444300000000000000000000000000000000000000000000000000000000600082015250565b6000611b83600483611855565b9150611b8e82611b4d565b602082019050919050565b6000606082019050611bae6000830185611493565b611bbb60208301846113de565b8181036040830152611bcc81611b76565b90509392505050565b7f6f6e6c792061646d696e00000000000000000000000000000000000000000000600082015250565b6000611c0b600a83611855565b9150611c1682611bd5565b602082019050919050565b60006020820190508181036000830152611c3a81611bfe565b9050919050565b7f7472616e7366657220616c72656164792070726f636573736564000000000000600082015250565b6000611c77601a83611855565b9150611c8282611c41565b602082019050919050565b60006020820190508181036000830152611ca681611c6a565b9050919050565b600060c082019050611cc26000830189611493565b611ccf6020830188611493565b611cdc60408301876113de565b611ce960608301866113de565b611cf660808301856113de565b611d0360a08301846113de565b979650505050505050565b7f5072696365206d7573742062652067726561746572207468616e205a65726f00600082015250565b6000611d44601f83611855565b9150611d4f82611d0e565b602082019050919050565b60006020820190508181036000830152611d7381611d37565b9050919050565b6000611d8582611368565b91507fffffffffffffffffffffffffffffffffffffffffffffffffffffffffffffffff8203611db757611db6611727565b5b600182019050919050565b7f4f776e61626c653a206e6577206f776e657220697320746865207a65726f206160008201527f6464726573730000000000000000000000000000000000000000000000000000602082015250565b6000611e1e602683611855565b9150611e2982611dc2565b604082019050919050565b60006020820190508181036000830152611e4d81611e11565b9050919050565b7f4f776e61626c653a2063616c6c6572206973206e6f7420746865206f776e6572600082015250565b6000611e8a602083611855565b9150611e9582611e54565b602082019050919050565b60006020820190508181036000830152611eb981611e7d565b905091905056fea26469706673582212205363b105e8a1f80de6c86c1404d76dcf94ae67dd12cea4b09969a48f73ebbdfb64736f6c63430008140033",
  "linkReferences": {},
  "deployedLinkReferences": {}
}